:100A45000212000002140000020A0000020C00005D
:100A5500020E00000210000002080000021600004D
:100A6600438E805389F0758AD4758CFEC28DD28CE4
:050A7600D2A9D2AF225D
:03000B00020800E8
:10080000C0E0C0F0C0D075D000C000C002C003C0BE
:1008100004C005C006C00730B20A0513E5137019FD
:1008200005128015E5134512600F20B20C85120ADF
:1008300085130B75120075130030B30A0515E51505
:10084000701905148015E5154514600F20B30C854B
:10085000140C85150D7514007515000509E5097052
:1008600002050864D07004E508640760030208F715
:10087000F508F509C3E50B9464E50A6480948040AB
:100880006AE50D9464E50C64809480405ED3E50BCA
:1008900094DCE50A648094805051E50D94DCE50C0D
:1008A000648094805045E50D246AFFE50C34FFFE1A
:1008B0007C007D021209BAAA06AB07E50B246AFF89
:1008C000E50A34FFFE7C007D021209BAEF2BFDEE33
:1008D0003ACD2496F50FE43DF50EC3EF9BFFEE9A5B
:1008E000CF2496F511E43FF510800C750E00750FBE
:1008F00000751000751100C3E509950FE508950E08
:100900005004D2B48002C2B4C3E5099511E508953C
:10091000105004D2B58002C2B5D007D006D005D0A1
:0E09200004D003D002D000D0D0D0F0D0E0320E
:050A7B00120A6680FE76
:0300000002092EC4
:0C092E00787FE4F6D8FD7581170209758A
:1009BA00C2D5EC30E709B2D5E4C39DFDE49CFCEE58
:1009CA0030E715B2D5E4C39FFFE49EFE1209F0C3D7
:1009DA00E49DFDE49CFC80031209F030D507C3E4D2
:0609EA009FFFE49EFE22C7
:10093A00020A7BE493A3F8E493A34003F68001F24E
:10094A0008DFF48029E493A3F85407240CC8C333BE
:10095A00C4540F4420C8834004F456800146F6DF8D
:10096A00E4800B0102040810204080900A45E47ECE
:10097A00019360BCA3FF543F30E509541FFEE49382
:10098A00A360010ECF54C025E060A840B8E493A349
:10099A00FAE493A3F8E493A3C8C582C8CAC583CA74
:1009AA00F0A3C8C582C8CAC583CADFE9DEE780BE2C
:010A65000090
:1009F000BC000BBE0029EF8DF084FFADF022E4CCEB
:100A0000F875F008EF2FFFEE33FEEC33FCEE9DECB3
:100A1000984005FCEE9DFE0FD5F0E9E4CEFD22EDF9
:100A2000F8F5F0EE8420D21CFEADF075F008EF2F43
:100A3000FFED33FD4007985006D5F0F222C398FD34
:050A40000FD5F0EA22D1
:00000001FF
